{
  "contractName": "TodoList",
  "abi": [
    {
      "constant": true,
      "inputs": [
        {
          "name": "",
          "type": "uint256"
        }
      ],
      "name": "tasks",
      "outputs": [
        {
          "name": "id",
          "type": "uint256"
        },
        {
          "name": "content",
          "type": "string"
        },
        {
          "name": "completed",
          "type": "bool"
        },
        {
          "name": "reward",
          "type": "uint256"
        }
      ],
      "payable": false,
      "stateMutability": "view",
      "type": "function",
      "signature": "0x8d977672"
    },
    {
      "constant": true,
      "inputs": [],
      "name": "taskCount",
      "outputs": [
        {
          "name": "",
          "type": "uint256"
        }
      ],
      "payable": false,
      "stateMutability": "view",
      "type": "function",
      "signature": "0xb6cb58a5"
    },
    {
      "inputs": [],
      "payable": false,
      "stateMutability": "nonpayable",
      "type": "constructor",
      "signature": "constructor"
    },
    {
      "payable": true,
      "stateMutability": "payable",
      "type": "fallback"
    },
    {
      "anonymous": false,
      "inputs": [
        {
          "indexed": false,
          "name": "id",
          "type": "uint256"
        },
        {
          "indexed": false,
          "name": "completed",
          "type": "bool"
        }
      ],
      "name": "TaskCompleted",
      "type": "event",
      "signature": "0xe21fa966ca5cd02748c0752352d18c48165e61cb55b4c29cccf924b5a95fcff1"
    },
    {
      "anonymous": false,
      "inputs": [
        {
          "indexed": false,
          "name": "id",
          "type": "uint256"
        },
        {
          "indexed": false,
          "name": "content",
          "type": "string"
        },
        {
          "indexed": false,
          "name": "completed",
          "type": "bool"
        },
        {
          "indexed": false,
          "name": "reward",
          "type": "uint256"
        }
      ],
      "name": "TaskCreated",
      "type": "event",
      "signature": "0xf844eff5bb3b551f3ab172f7edad2073ce268e60cbb5bf8a7b6d5e41154b0f46"
    },
    {
      "constant": false,
      "inputs": [
        {
          "name": "_content",
          "type": "string"
        },
        {
          "name": "_reward",
          "type": "uint256"
        }
      ],
      "name": "createTask",
      "outputs": [],
      "payable": false,
      "stateMutability": "nonpayable",
      "type": "function",
      "signature": "0x04fe2b34"
    },
    {
      "constant": false,
      "inputs": [
        {
          "name": "_id",
          "type": "uint256"
        }
      ],
      "name": "markCompleted",
      "outputs": [],
      "payable": false,
      "stateMutability": "nonpayable",
      "type": "function",
      "signature": "0xcac5c512"
    },
    {
      "constant": false,
      "inputs": [
        {
          "name": "recipient",
          "type": "address"
        },
        {
          "name": "reward",
          "type": "uint256"
        }
      ],
      "name": "sendEther",
      "outputs": [],
      "payable": false,
      "stateMutability": "nonpayable",
      "type": "function",
      "signature": "0xc1756a2c"
    },
    {
      "constant": true,
      "inputs": [
        {
          "name": "_id",
          "type": "uint256"
        }
      ],
      "name": "getTaskReward",
      "outputs": [
        {
          "name": "",
          "type": "uint256"
        }
      ],
      "payable": false,
      "stateMutability": "view",
      "type": "function",
      "signature": "0x21fca298"
    },
    {
      "constant": true,
      "inputs": [],
      "name": "showBalance",
      "outputs": [
        {
          "name": "",
          "type": "uint256"
        }
      ],
      "payable": false,
      "stateMutability": "view",
      "type": "function",
      "signature": "0x81b2d07b"
    }
  ],
  "bytecode": "0x60806040526000805534801561001457600080fd5b5060408051808201909152601781527f446f2063727970746f6772617068792070726f6a656374000000000000000000602082015261005d906001640100000000610062810204565b61023b565b6000805460019081018083556040805160808101825282815260208082018881528284018790526060830188905293865284815291909420845181559151805192936100b6939085019291909101906101a0565b5060408201518160020160006101000a81548160ff021916908315150217905550606082015181600301559050507ff844eff5bb3b551f3ab172f7edad2073ce268e60cbb5bf8a7b6d5e41154b0f4660005483600084604051808581526020018060200184151515158152602001838152602001828103825285818151815260200191508051906020019080838360005b8381101561015f578181015183820152602001610147565b50505050905090810190601f16801561018c5780820380516001836020036101000a031916815260200191505b509550505050505060405180910390a15050565b828054600181600116156101000203166002900490600052602060002090601f016020900481019282601f106101e157805160ff191683800117855561020e565b8280016001018555821561020e579182015b8281111561020e5782518255916020019190600101906101f3565b5061021a92915061021e565b5090565b61023891905b8082111561021a5760008155600101610224565b90565b6108648061024a6000396000f3fe6080604052600436106100825763ffffffff7c010000000000000000000000000000000000000000000000000000000060003504166304fe2b34811461008457806321fca2981461013957806381b2d07b146101755780638d9776721461018a578063b6cb58a514610245578063c1756a2c1461025a578063cac5c512146102a0575b005b34801561009057600080fd5b50610082600480360360408110156100a757600080fd5b8101906020810181356401000000008111156100c257600080fd5b8201836020820111156100d457600080fd5b803590602001918460018302840111640100000000831117156100f657600080fd5b91908080601f01602080910402602001604051908101604052809392919081815260200183838082843760009201919091525092955050913592506102ca915050565b34801561014557600080fd5b506101636004803603602081101561015c57600080fd5b5035610408565b60408051918252519081900360200190f35b34801561018157600080fd5b506101636104e9565b34801561019657600080fd5b506101b4600480360360208110156101ad57600080fd5b50356104ef565b604051808581526020018060200184151515158152602001838152602001828103825285818151815260200191508051906020019080838360005b838110156102075781810151838201526020016101ef565b50505050905090810190601f1680156102345780820380516001836020036101000a031916815260200191505b509550505050505060405180910390f35b34801561025157600080fd5b506101636105a5565b34801561026657600080fd5b506100826004803603604081101561027d57600080fd5b5073ffffffffffffffffffffffffffffffffffffffff81351690602001356105ab565b3480156102ac57600080fd5b50610082600480360360208110156102c357600080fd5b5035610600565b60008054600190810180835560408051608081018252828152602080820188815282840187905260608301889052938652848152919094208451815591518051929361031e93908501929190910190610775565b5060408201518160020160006101000a81548160ff021916908315150217905550606082015181600301559050507ff844eff5bb3b551f3ab172f7edad2073ce268e60cbb5bf8a7b6d5e41154b0f4660005483600084604051808581526020018060200184151515158152602001838152602001828103825285818151815260200191508051906020019080838360005b838110156103c75781810151838201526020016103af565b50505050905090810190601f1680156103f45780820380516001836020036101000a031916815260200191505b509550505050505060405180910390a15050565b60006104126107f3565b60008381526001602081815260409283902083516080810185528154815281840180548651600296821615610100026000190190911695909504601f810185900485028601850190965285855290949193858401939092908301828280156104bb5780601f10610490576101008083540402835291602001916104bb565b820191906000526020600020905b81548152906001019060200180831161049e57829003601f168201915b5050509183525050600282015460ff1615156020820152600390910154604090910152606001519392505050565b30315b90565b600160208181526000928352604092839020805481840180548651600296821615610100026000190190911695909504601f8101859004850286018501909652858552909491939290919083018282801561058b5780601f106105605761010080835404028352916020019161058b565b820191906000526020600020905b81548152906001019060200180831161056e57829003601f168201915b505050506002830154600390930154919260ff1691905084565b60005481565b604051670de0b6b3a764000082029073ffffffffffffffffffffffffffffffffffffffff84169082156108fc029083906000818181858888f193505050501580156105fa573d6000803e3d6000fd5b50505050565b6106086107f3565b60008281526001602081815260409283902083516080810185528154815281840180548651600296821615610100026000190190911695909504601f810185900485028601850190965285855290949193858401939092908301828280156106b15780601f10610686576101008083540402835291602001916106b1565b820191906000526020600020905b81548152906001019060200180831161069457829003601f168201915b5050509183525050600282015460ff161515602080830191909152600390920154604091820152828101805115905260008581526001808452919020835181558383015180519495508594919361070d93850192910190610775565b5060408281015160028301805460ff1916911515919091179055606090920151600390910155818101518151848152901515602082015281517fe21fa966ca5cd02748c0752352d18c48165e61cb55b4c29cccf924b5a95fcff1929181900390910190a15050565b828054600181600116156101000203166002900490600052602060002090601f016020900481019282601f106107b657805160ff19168380011785556107e3565b828001600101855582156107e3579182015b828111156107e35782518255916020019190600101906107c8565b506107ef92915061081e565b5090565b6080604051908101604052806000815260200160608152602001600015158152602001600081525090565b6104ec91905b808211156107ef576000815560010161082456fea165627a7a723058209f69d14ad6a6dbed9cf12cdd9e4344828e4811b5e90da67b213eba20b252e1600029",
  "source": "// SPDX-License-Identifier: MIT\r\npragma solidity >=0.4.22 <0.9.0;\r\n\r\ncontract TodoList {\r\n    // el keyword public lo que hace es que nos deja leer taskCount como si fuera el llamado de una funcion\r\n    uint256 public taskCount = 0;\r\n\r\n    struct Task {\r\n        uint256 id;\r\n        string content;\r\n        bool completed;\r\n        uint reward;\r\n    }\r\n\r\n    event TaskCompleted(uint256 id, bool completed);\r\n\r\n    // creamos la estructura de datos para guardar nuestros tasks, este funciona como hash map\r\n    mapping(uint256 => Task) public tasks;\r\n\r\n    event TaskCreated(uint256 id, string content, bool completed, uint reward);\r\n\r\n    constructor() public {\r\n      createTask(\"Do cryptography project\", 1);\r\n    }\r\n\r\n    // funcion para guardar tasks dentro del mapping\r\n    function createTask(string memory _content, uint _reward) public {\r\n      taskCount++;\r\n      tasks[taskCount] = Task(taskCount, _content, false, _reward);\r\n      emit TaskCreated(taskCount, _content, false, _reward);\r\n    }\r\n\r\n    // funcion para para marcar como completa una tarea\r\n    function markCompleted(uint256 _id) public {\r\n      Task memory _task = tasks[_id];\r\n      _task.completed = !_task.completed;\r\n      tasks[_id] = _task;\r\n      emit TaskCompleted(_id, _task.completed);\r\n    }\r\n\r\n    // funcion para enviar ether del contrato hacia una direccion\r\n    function sendEther(address payable recipient, uint reward) external {\r\n      uint money = reward * 1 ether;\r\n      recipient.transfer(money);\r\n    }\r\n    \r\n    // funcion para obtener el valor de la recompensa de cada task \r\n    function getTaskReward(uint256 _id) external view returns(uint){\r\n      Task memory _task = tasks[_id];\r\n      return _task.reward;\r\n    }\r\n\r\n    // funcion para depositar ether en el smart contract\r\n    function() external payable {}\r\n\r\n    // funcion para mostrar cuanto ether tiene este smart contract\r\n    function showBalance() external view returns (uint256) {\r\n      return address(this).balance;\r\n    }\r\n}\r\n",
  "sourcePath": "C:/Users/Sebastian/Desktop/Blockchain project/contracts/TodoList.sol",
  "compiler": {
    "name": "solc",
    "version": "0.5.0+commit.1d4f565a.Emscripten.clang"
  },
  "schemaVersion": "3.0.1",
  "updatedAt": "2021-10-31T01:30:20.848Z",
  "devdoc": {
    "methods": {}
  },
  "userdoc": {
    "methods": {}
  }
}