{
  "contractName": "TodoList",
  "abi": [
    {
      "constant": true,
      "inputs": [
        {
          "name": "",
          "type": "uint256"
        }
      ],
      "name": "tasks",
      "outputs": [
        {
          "name": "id",
          "type": "uint256"
        },
        {
          "name": "content",
          "type": "string"
        },
        {
          "name": "completed",
          "type": "bool"
        }
      ],
      "payable": false,
      "stateMutability": "view",
      "type": "function",
      "signature": "0x8d977672"
    },
    {
      "constant": true,
      "inputs": [],
      "name": "taskCount",
      "outputs": [
        {
          "name": "",
          "type": "uint256"
        }
      ],
      "payable": false,
      "stateMutability": "view",
      "type": "function",
      "signature": "0xb6cb58a5"
    },
    {
      "constant": true,
      "inputs": [],
      "name": "functionCalled",
      "outputs": [
        {
          "name": "",
          "type": "string"
        }
      ],
      "payable": false,
      "stateMutability": "view",
      "type": "function",
      "signature": "0xcc81afc8"
    },
    {
      "inputs": [],
      "payable": false,
      "stateMutability": "nonpayable",
      "type": "constructor",
      "signature": "constructor"
    },
    {
      "payable": true,
      "stateMutability": "payable",
      "type": "fallback"
    },
    {
      "anonymous": false,
      "inputs": [
        {
          "indexed": false,
          "name": "id",
          "type": "uint256"
        },
        {
          "indexed": false,
          "name": "completed",
          "type": "bool"
        }
      ],
      "name": "TaskCompleted",
      "type": "event",
      "signature": "0xe21fa966ca5cd02748c0752352d18c48165e61cb55b4c29cccf924b5a95fcff1"
    },
    {
      "anonymous": false,
      "inputs": [
        {
          "indexed": false,
          "name": "id",
          "type": "uint256"
        },
        {
          "indexed": false,
          "name": "content",
          "type": "string"
        },
        {
          "indexed": false,
          "name": "completed",
          "type": "bool"
        }
      ],
      "name": "TaskCreated",
      "type": "event",
      "signature": "0x05d0fb833127fc08168556d0e7ca9554fc3f6bc843b3b7d2bf1c35aea6bab660"
    },
    {
      "constant": false,
      "inputs": [
        {
          "name": "_content",
          "type": "string"
        }
      ],
      "name": "createTask",
      "outputs": [],
      "payable": false,
      "stateMutability": "nonpayable",
      "type": "function",
      "signature": "0x111002aa"
    },
    {
      "constant": false,
      "inputs": [
        {
          "name": "_id",
          "type": "uint256"
        }
      ],
      "name": "toggleCompleted",
      "outputs": [],
      "payable": false,
      "stateMutability": "nonpayable",
      "type": "function",
      "signature": "0x455f5024"
    },
    {
      "constant": false,
      "inputs": [
        {
          "name": "recipient",
          "type": "address"
        }
      ],
      "name": "sendEther",
      "outputs": [],
      "payable": false,
      "stateMutability": "nonpayable",
      "type": "function",
      "signature": "0x48c981e2"
    },
    {
      "constant": true,
      "inputs": [],
      "name": "showBalance",
      "outputs": [
        {
          "name": "",
          "type": "uint256"
        }
      ],
      "payable": false,
      "stateMutability": "view",
      "type": "function",
      "signature": "0x81b2d07b"
    }
  ],
  "bytecode": "0x60806040526000805534801561001457600080fd5b5060408051808201909152600a81527f4669727374207461736b00000000000000000000000000000000000000000000602082015261005b90640100000000610060810204565b610220565b6000805460019081018083556040805160608101825282815260208082018781528284018790529386526002815291909420845181559151805192936100ae93908501929190910190610185565b5060408201518160020160006101000a81548160ff0219169083151502179055509050507f05d0fb833127fc08168556d0e7ca9554fc3f6bc843b3b7d2bf1c35aea6bab660600054826000604051808481526020018060200183151515158152602001828103825284818151815260200191508051906020019080838360005b8381101561014657818101518382015260200161012e565b50505050905090810190601f1680156101735780820380516001836020036101000a031916815260200191505b5094505050505060405180910390a150565b828054600181600116156101000203166002900490600052602060002090601f016020900481019282601f106101c657805160ff19168380011785556101f3565b828001600101855582156101f3579182015b828111156101f35782518255916020019190600101906101d8565b506101ff929150610203565b5090565b61021d91905b808211156101ff5760008155600101610209565b90565b6108188061022f6000396000f3fe6080604052600436106100825763ffffffff7c0100000000000000000000000000000000000000000000000000000000600035041663111002aa8114610084578063455f50241461013757806348c981e21461016157806381b2d07b146101a15780638d977672146101c8578063b6cb58a51461027c578063cc81afc814610291575b005b34801561009057600080fd5b50610082600480360360208110156100a757600080fd5b8101906020810181356401000000008111156100c257600080fd5b8201836020820111156100d457600080fd5b803590602001918460018302840111640100000000831117156100f657600080fd5b91908080601f01602080910402602001604051908101604052809392919081815260200183838082843760009201919091525092955061031b945050505050565b34801561014357600080fd5b506100826004803603602081101561015a57600080fd5b5035610440565b34801561016d57600080fd5b506100826004803603602081101561018457600080fd5b503573ffffffffffffffffffffffffffffffffffffffff1661059f565b3480156101ad57600080fd5b506101b66105e9565b60408051918252519081900360200190f35b3480156101d457600080fd5b506101f2600480360360208110156101eb57600080fd5b50356105ef565b604051808481526020018060200183151515158152602001828103825284818151815260200191508051906020019080838360005b8381101561023f578181015183820152602001610227565b50505050905090810190601f16801561026c5780820380516001836020036101000a031916815260200191505b5094505050505060405180910390f35b34801561028857600080fd5b506101b661069d565b34801561029d57600080fd5b506102a66106a3565b6040805160208082528351818301528351919283929083019185019080838360005b838110156102e05781810151838201526020016102c8565b50505050905090810190601f16801561030d5780820380516001836020036101000a031916815260200191505b509250505060405180910390f35b60008054600190810180835560408051606081018252828152602080820187815282840187905293865260028152919094208451815591518051929361036993908501929190910190610730565b5060408201518160020160006101000a81548160ff0219169083151502179055509050507f05d0fb833127fc08168556d0e7ca9554fc3f6bc843b3b7d2bf1c35aea6bab660600054826000604051808481526020018060200183151515158152602001828103825284818151815260200191508051906020019080838360005b838110156104015781810151838201526020016103e9565b50505050905090810190601f16801561042e5780820380516001836020036101000a031916815260200191505b5094505050505060405180910390a150565b6104486107ae565b6000828152600260208181526040928390208351606081018552815481526001808301805487519281161561010002600019011695909504601f81018590048502820185019096528581529094919385840193919290918301828280156104f05780601f106104c5576101008083540402835291602001916104f0565b820191906000526020600020905b8154815290600101906020018083116104d357829003601f168201915b505050918352505060029182015460ff161515602091820152604080840180511590526000868152928252909120825181558282015180519394508493919261054192600185019290910190610730565b50604091820151600291909101805460ff1916911515919091179055818101518151848152901515602082015281517fe21fa966ca5cd02748c0752352d18c48165e61cb55b4c29cccf924b5a95fcff1929181900390910190a15050565b60405173ffffffffffffffffffffffffffffffffffffffff821690600090670de0b6b3a76400009082818181858883f193505050501580156105e5573d6000803e3d6000fd5b5050565b30315b90565b60026020818152600092835260409283902080546001808301805487519281161561010002600019011695909504601f810185900485028201850190965285815290949193909290919083018282801561068a5780601f1061065f5761010080835404028352916020019161068a565b820191906000526020600020905b81548152906001019060200180831161066d57829003601f168201915b5050506002909301549192505060ff1683565b60005481565b60018054604080516020600284861615610100026000190190941693909304601f810184900484028201840190925281815292918301828280156107285780601f106106fd57610100808354040283529160200191610728565b820191906000526020600020905b81548152906001019060200180831161070b57829003601f168201915b505050505081565b828054600181600116156101000203166002900490600052602060002090601f016020900481019282601f1061077157805160ff191683800117855561079e565b8280016001018555821561079e579182015b8281111561079e578251825591602001919060010190610783565b506107aa9291506107d2565b5090565b60606040519081016040528060008152602001606081526020016000151581525090565b6105ec91905b808211156107aa57600081556001016107d856fea165627a7a7230582018237250b3ed899f7150f9c9cdad36484bbff75aaec846d5c25c7b3b369e0b180029",
  "source": "// SPDX-License-Identifier: MIT\r\npragma solidity >=0.4.22 <0.9.0;\r\n\r\ncontract TodoList {\r\n    // el keyword public lo que hace es que nos deja leer taskCount como si fuera el llamado de una funcion\r\n    uint256 public taskCount = 0;\r\n    // address payable owner = msg.sender;\r\n    string public functionCalled;\r\n\r\n    struct Task {\r\n        uint256 id;\r\n        string content;\r\n        bool completed;  \r\n    }\r\n\r\n    event TaskCompleted(\r\n        uint id,\r\n        bool completed\r\n    );\r\n\r\n    // creamos la estructura de datos para guardar nuestros tasks, este funciona como hash map\r\n    mapping(uint256 => Task) public tasks;\r\n\r\n    event TaskCreated(uint256 id, string content, bool completed);\r\n\r\n    constructor() public {\r\n        //owner = payable(msg.sender);\r\n        createTask(\"First task\");\r\n    }\r\n\r\n    // funcion para guardar tasks dentro del mapping\r\n     function createTask(string memory _content) public {\r\n    taskCount ++;\r\n    tasks[taskCount] = Task(taskCount, _content, false);\r\n    emit TaskCreated(taskCount, _content, false);\r\n  }\r\n\r\n  function toggleCompleted(uint _id) public {\r\n    Task memory _task = tasks[_id];\r\n    _task.completed = !_task.completed;\r\n    tasks[_id] = _task;\r\n    emit TaskCompleted(_id, _task.completed);\r\n  }\r\n\r\n  // function earnForTask() public payable {\r\n  //     //address payable x = payable(address(msg.sender));\r\n  //     uint256 amount = 1;\r\n  //     msg.sender.transfer(amount);  \r\n\r\n  // }\r\n  function sendEther(address payable recipient) external {\r\n    recipient.transfer(1 ether);\r\n    // transfer 1 ether from this smart contract to recipient\r\n  }\r\n  // function sendViaTransfer(address payable _to) public payable {\r\n  //       // This function is no longer recommended for sending Ether.\r\n  //       _to.transfer(msg.value);\r\n  //   }\r\n  \r\n  //function recieveEther() payable public{}\r\n  // function recieveEther() external payable {\r\n  //   functionCalled = 'recieveEther';\r\n  // }\r\n\r\n  function () external payable {\r\n    //functionCalled = 'fallback';\r\n  }\r\n  function showBalance() external view returns(uint){\r\n    return address(this).balance;\r\n  }\r\n  \r\n}",
  "sourcePath": "C:/Users/Sebastian/Desktop/Blockchain project/contracts/TodoList.sol",
  "compiler": {
    "name": "solc",
    "version": "0.5.0+commit.1d4f565a.Emscripten.clang"
  },
  "schemaVersion": "3.0.1",
  "updatedAt": "2021-10-24T17:45:45.799Z",
  "devdoc": {
    "methods": {}
  },
  "userdoc": {
    "methods": {}
  }
}